:101D52004100020041005300410000004100010027
:031D620001390143
:101D1100758921E4F587759850758DFD758BFDD218
:061D2100AFD2ACD28E220D
:10147300E4F508121CA8121D11121CDEE402156308
:10148300900053E060FA20B70D30B7FD0539E53918
:10149300B40403753901E53924FE603F14607224F6
:1014A3000270DD7B017A0079037C007D5412064CC7
:1014B300EF4E600D121C6DE4F508900000F002156C
:1014C300630508E508C394144009750814121C8CBD
:1014D300121CDEE4900000F00215637B017A0079B0
:1014E300037C007D5412064CEF4E600C120AA8E4F4
:1014F300F508900000F080680508E508C3941440DF
:1015030009750814121C8C121CDEE4900000F08094
:101513004F7B017A0079037C007D5412170BEF4E49
:1015230060081217BCE4F50880130508E508C394A6
:10153300144009750814121C8C121CDEE490000080
:10154300F0900053F07B017A0079037C007D541204
:1015530019E5EF4E6011121CC3E4F508900000F08A
:10156300900053F00214830508E508C3941440095E
:10157300750814121C8C121CDEE4900000F090001D
:0515830053F002148387
:0300230002196F50
:0F196F00C0E0C083C082C0D075D000C006C007E2
:10197E00C2AC309851AF99BF2410900000E0700AAD
:10198E0090000204F0900053E4F0900002E0B401E5
:10199E0035900001E0FE04F074032EF582E434006D
:1019AE00F583EFF0BF0A1F900001E02403F582E4F7
:1019BE003400F583E4F0900002F090005304F090B0
:0A19CE000000F0A3E4F0C298D2ACD0
:0D19D800D007D006D0D0D082D083D0E0322E
:101C4B0047505320B3F5CABCBBAF2E2E2E2E2E2ED3
:101C5B00002020B6A8CEBBD6D02E2E2E2E2E2E2078
:021C6B00200057
:101CDE007BFF7A1C794BE4FD7F01121BD57BFF7ACB
:0A1CEE001C795CE4FD7F02021BD5A7
:04064C008C098D0A7E
:100650008B198A1A891B900005120409F50B7F0279
:10066000121A97AB19AA1AA91B8F8275830012045C
:1006700009FFE50B64436003020AA4EF64416003D1
:10068000020AA47F04121A97AB19AA1AA91B8F8217
:10069000758300120409FFE50A2428F582E4350970
:1006A000F583EFF07F06121A97AB19AA1AA91B8FD0
:1006B00082758300120409FFE50A2429F582E435D6
:1006C00009F583EFF07F03121A97121B1E850A8229
:1006D0008509831205B37F05121A91121B1EE50AC4
:1006E0002404F582E43509F5831205B3850A828571
:1006F0000983E0FCA3E0FDA3E0FEA3E0FF12036F8B
:100700007C007D6412045AE50A2408F582E4350968
:10071000F583EEF0A3EFF0E50A2408F582E435094D
:10072000F583E0FEA3E0FF7C007D64120448AC0684
:10073000AD07EC120336A804A905AA06AB07850A83
:1007400082850983E0FCA3E0FDA3E0FEA3E0FF12A5
:1007500000298F108E0F8D0E8C0D12036FE50A2469
:100760000AF582E43509F583EEF0A3EFF0E50A24FB
:100770000AF582E43509F583E0FCA3E0FDEC120301
:1007800036A804A905AA06AB07AF10AE0FAD0EAC94
:100790000D120029E4FBFA7970784212011E12034F
:1007A0006FE50A240CF582E43509F583EEF0A3EF3A
:1007B000F0E50A2404F582E43509F583E0FCA3E0C2
:1007C000FDA3E0FEA3E0FF12036F7C007D64120432
:1007D0005AE50A240EF582E43509F583EEF0A3EF1D
:1007E000F0E50A240EF582E43509F583E0FEA3E086
:1007F000FF7C007D64120448AC06AD07EC120336A2
:10080000A804A905AA06AB07E50A2404F582E43585
:1008100009F583E0FCA3E0FDA3E0FEA3E0FF1200E6
:10082000298F148E138D128C1112036FE50A241078
:10083000F582E43509F583EEF0A3EFF0E50A241024
:10084000F582E43509F583E0FCA3E0FDEC12033604
:10085000A804A905AA06AB07AF14AE13AD12AC11DC
:10086000120029E4FBFA7970784212011E12036F1C
:10087000E50A2412F582E43509F583EEF0A3EFF0E2
:100880007F07121A91121ADB8F188E178D168C158E
:100890007FCD7ECC7DEC7C3FAB18AA17A916A8159E
:1008A00012011EE50A2414F582E43509F5831205C8
:1008B000B3AB19AA1AA91B7F08121A97121ADBE503
:1008C0000A2418F582E43509F5831205B3AB19AA99
:1008D0001AA91B900007120409FF3395E0FEEF24CC
:1008E000D0FFEE34FFFE7C007D0A12044890000821
:1008F000120409FD3395E0FCED24D0FDEC34FFCD6E
:100900002FFFED3EFEE50A2430F582E43509F5833C
:10091000EEF0A3EFF0900009120409FF3395E0FE1A
:10092000EF24D0FFEE34FFFE7C007D0A12044890D5
:10093000000A120409FD3395E0FCED24D0FDEC34EF
:10094000FFCD2FFFED3EFEE50A2432F582E43509A6
:10095000F583EEF0A3EFF090000B120409FF33953E
:10096000E0FEEF24D0FFEE34FFFE7C007D0A12048F
:100970004890000C120409FD3395E0FCED24D0FDF5
:10098000EC34FFCD2FFFED3EFEE50A2434F582E482
:100990003509F583EEF0A3EFF07F09121A978F0C5B
:1009A000AB19AA1AA91B8F82758300120409FF33A1
:1009B00095E0FEEF24D0FFEE34FFFE7C007D0A12AE
:1009C0000448850C828C83A3120409FD3395E0FC56
:1009D000ED24D0FDEC34FFCD2FFFED3EFEE50A24E3
:1009E0002EF582E43509F583EEF0A3EFF0850C8255
:1009F000758300A3A3120409FF3395E0FEEF24D012
:100A0000FFEE34FFFE7C007D0A120448850C828CC8
:100A100083A3A3A3120409FD3395E0FCED24D0FDCC
:100A2000EC34FFCD2FFFED3EFEE50A242CF582E4E9
:100A30003509F583EEF0A3EFF07404250CF582E49C
:100A400033F583120409FF3395E0FEEF24D0FFEE67
:100A500034FFFE7C007D0A1204487405250CF582E3
:100A6000E433F583120409FD3395E0FCED24D0FD59
:100A7000EC34FFCD2FFFED3ECF24D0CF3407FEE581
:100A80000A242AF582E43509F583EEF0A3EFF0E5B8
:100A90000A242AFFE43509FAA9077B01120E767EA3
:070AA000007F0122E4FEFFCC
:010AA700222C
:04170B008C098D0AAE
:10170F008B0C8A0D890E900004120409F50B7F02D1
:10171F00121A97AB0CAA0DA90E8F827583001204B3
:10172F0009FFE50B644760030217B8EF642C60797B
:10173F007F09121A977E00AB0CE50E2FF9EE350DCF
:10174F00FA121AE7E50A2420F582E43509F5831227
:10175F0005B3AB0CAA0DA90E7F0B121A977E00AB27
:10176F000CE50E2FF9EE350DFA121AE7E50A241CD7
:10177F00F582E43509F5831205B3AB0CAA0DA90E5A
:10178F007F07121A977E00AB0CE50E2FF9EE350D81
:10179F00FA121B9EE50A2426F582E43509F583EE3D
:0C17AF00F0A3EFF07E007F0122E4FEFFBB
:0117BB00220B
:0419E5008C098D0AD2
:1019E9008B0D8A0E890F900005120409F50B7F02F1
:1019F900121A97AB0DAA0EA90F8F827583001204D4
:101A090009F50CE50B645670297F03121A977E00BD
:101A1900AB0DE50F2FF9EE350EFA121B9EE50A24E0
:101A290024F582E43509F583EEF0A3EFF07E007F1B
:051A39000122E4FEFFA4
:011A3E002285
:10158800E4F51EF51F8B228A238924AB22AA23A9FE
:10159800241203F0FF700302164524D0B40A005049
:1015A800799015B775F003A4C58325F0C583730238
:1015B80015D50215DC0215E40215EC0215F4021526
:1015C800FC02160402160C02161402161CE4F5207E
:1015D800F5218046752000752101803E7520007533
:1015E80021028036752000752103802E7520007534
:1015F80021048026752000752105801E7520007540
:1016080021068016752000752107800E752000754B
:1016180021088006752000752109AE1EAF1F7C00C9
:101628007D0A120448E5212FF51FE5203EF51E74BA
:10163800012524F524E43523F523021593AE1EAFC6
:011648001F82
:01164900227E
:10101900E4F52DF52CF52BF52AF5327533018B34D2
:101029008A358936AB34AA35A9361203F0FF700325
:101039000211A424D2B40C0040030210EF90105402
:1010490075F003A4C58325F0C583730210E402106B
:10105900EF0210780210830210900210990210A377
:101069000210AD0210B70210C10210CE0210D7E46F
:10107900F531F530F52FF52E806CE4F531F5307545
:101089002F80752E3F805FE4F531F530F52F8030E4
:10109900E4F531F530752F408026E4F531F53075EA
:1010A9002F80801CE4F531F530752FA08012E4F50E
:1010B90031F530752FC08008E4F531F530752FE032
:1010C900752E408021E4F531F530F52F8008E4F5DF
:1010D90031F530752F10752E41800BE4F531F5305F
:1010E900752F38752E42E4FFFE7D387C42AB31AA5C
:1010F90030A92FA82E1202C4700DF532F533F53739
:1011090075380104021198E533640145327026FFF0
:10111900FE7D207C41AB2DAA2CA92BA82A12011EE9
:10112900AB31AA30A92FA82E12002D8F2D8E2C8D10
:101139002B8C2A8058AB2DAA2CA92BA82AC000C019
:1011490001C002C003AE37AF387C007D0A120448E3
:10115900AC06AD07EC120336A804A905AA06AB072D
:10116900AF31AE30AD2FAC2E120227D003D002D052
:1011790001D00012002D8F2D8E2C8D2B8C2AAE378D
:10118900AF387C007D0A1204488E378F38740125E8
:1011990036F536E43535F53502102DAF2DAE2CADCB
:0311A9002BAC2A42
:0111AC002220
:061B9E008B108A11891270
:101BA4007F01121A978F1D151D85102D85112E8505
:101BB400122F753000851D317B007A007913121ABB
:101BC4003F7413251DF8E4F6FB7A00791312158887
:011BD40022EE
:0C1ADB007E00AB19E51B2FF9EE351AFA5E
:061AE7008B1C8A1D891E04
:101AED007F01121A978F291529851C2D851D2E858D
:101AFD001E2F7530008529317B007A00791F121A4F
:101B0D003F741F2529F8E4F6FB7A00791F1210198E
:011B1D0022A5
:1011AD00E4F52DF52CF52BF52AF5327533018B343D
:1011BD008A358936AB34AA35A9361203F0FF700390
:1011CD0002133824D2B40C0040030212839011E8AC
:1011DD0075F003A4C58325F0C5837302127802123E
:1011ED008302120C02121702122402122D02123760
:1011FD0002124102124B02125502126202126BE4EC
:10120D00F531F530F52FF52E806CE4F531F53075AF
:10121D002F80752E3F805FE4F531F530F52F80304E
:10122D00E4F531F530752F408026E4F531F5307554
:10123D002F80801CE4F531F530752FA08012E4F578
:10124D0031F530752FC08008E4F531F530752FE09C
:10125D00752E408021E4F531F530F52F8008E4F549
:10126D0031F530752F10752E41800BE4F531F530C9
:10127D00752F38752E42E4FFFE7D387C42AB31AAC6
:10128D0030A92FA82E1202C4700DF532F533F537A3
:10129D007538010402132CE533640145327026FFC5
:1012AD00FE7D207C41AB2DAA2CA92BA82A12011E54
:1012BD00AB31AA30A92FA82E12002D8F2D8E2C8D7B
:1012CD002B8C2A8058AB2DAA2CA92BA82AC000C084
:1012DD0001C002C003AE37AF387C007D0A1204484E
:1012ED00AC06AD07EC120336A804A905AA06AB0798
:1012FD00AF31AE30AD2FAC2E120227D003D002D0BD
:10130D0001D00012002D8F2D8E2C8D2B8C2AAE37F7
:10131D00AF387C007D0A1204488E378F3874012552
:10132D0036F536E43535F5350211C1AF2DAE2CADA0
:03133D002BAC2AAC
:01134000228A
:0C1B1E007E00AB19E51B2FF9EE351AFA1A
:061B2A008B1C8A1D891EC0
:101B30007F01121A978F291529851C2D851D2E8549
:101B40001E2F7530008529317B007A00791F121A0B
:101B50003F741F2529F8E4F6FB7A00791F1211ADB6
:011B60002262
:061A9100AB19AA1AA91B03
:081A97008F2A8B2B8A2C892D6C
:101A9F00E4F52E121D3D8E2F8F30E4FFEFC39530EE
:101AAF00E52F6480F8748098501FAB2BAA2CA92DBA
:101ABF008F82758300120409B42C02052EE52EB512
:0B1ACF002A04EF04FF220F80D37F00E9
:011ADA0022E9
:100E76008B1C8A1D891E90000AE475F00112052B51
:100E860090000A1204BBD3943BE5F0648094804042
:100E960043AB1CAA1DA91E90000AE4F5F0120578C2
:100EA600900008E475F00112052B9000081204BBAF
:100EB600D3943BE5F0648094804019AB1CAA1DA92D
:100EC6001E900008E4F5F0120578900006E475F02F
:100ED6000112052BAB1CAA1DA91E900006E475F095
:100EE6000812052B9000061204BBD39417E5F06494
:100EF6008094805003021018AB1CAA1DA91E9000F6
:100F06000674FF75F0E812052B900004E475F001F5
:100F160012052B9000021204BBFFAEF064024E6075
:100F260018EF64044E6012EF64064E600CEF64091D
:100F36004E6006EF640B4E7019AB1CAA1DA91E90DD
:100F460000041204BBD3941EE5F064809480402D07
:100F56008017AB1CAA1DA91E9000041204BBD394D3
:100F66001FE5F0648094804014900004E475F0015D
:100F7600120578900002E475F00112052BAB1CAA4D
:100F86001DA91E120490FFAEF07C007D0412045AC7
:100F9600ED4C701F9000041204BBD3941DE5F06461
:100FA60080948040449000021204BB640245F070B5
:100FB600388023AB1CAA1DA91E9000041204BBD3C3
:100FC600941CE5F064809480401F9000021204BBDC
:100FD600640245F0701390000475F00112057890D4
:100FE6000002E475F00112052BAB1CAA1DA91E9088
:100FF60000021204BBD3940CE5F064809480401286
:1010060090000274FF75F0F412052BE475F00112DE
:0310160004F322BE
:04164A008E298F2A2C
:10164E00E4F533F5348B2B8A2C892DC3E52A940AC5
:10165E00E529648094805026052DE52D7002052C19
:10166E0014F97430120436252AFFAB2B052DE52D07
:10167E00AA2C7002052C14F9EF1204368075D3E5EE
:10168E002A9400E529648094804034AE29AF2A7CE8
:10169E00007D0A12045AAB05AA04AE29AF2A7C00BB
:1016AE007D0A12045A8E298F2AAF03EF2430FF05CC
:1016BE0034E5347002053314242EF8A60780BFE5F6
:1016CE0034153470021533C3E5336480948040239F
:1016DE00742E2534F8E6FFAB2B052DE52DAA2C70C4
:1016EE0002052C14F9EF120436E534153470021588
:0D16FE003380D4AB2BAA2CA92DE4020436B6
:071C0300121CF87F057E00B2
:101C0A00D3EF9400EE940040147D6E7C00ED1D70BD
:0D1C1A00011CED4C70F7EF1F70E61E80E31B
:011C2700229A
:101C28007D01E4FCED5FFBA804088002C313D8FC27
:101C3800FBEE25E0FEED25E0FDEB42060CBC08E4DA
:021C4800AF06E5
:011C4A002277
:101D6600C2A5D2A6D2A77580FFE58020E0FBC2A758
:011D7600224A
:101C8C007F34121CF8121C067F30121CF8121C0632
:0C1C9C007F01121CF87F057E00021C0A6C
:101CF800121D66C2A5C2A6121C288F80D2A700009A
:091D0800000000000000C2A72247
:101D2700D2A5C2A6121C288F80D2A70000000000EF
:061D3700000000C2A7221B
:101CA8007F34121C037F30121C037F0C121C037F2D
:0B1CB80001121CF87F057E00021C0AD0
:10000300EF70047F808013BF01047F90800CBF02D8
:10001300047F888005BF03027F98EF2DFF021CF841
:061BD5008B158A1689172A
:101BDB00E4F518F519120003AB15AA16A917851908
:101BEB0082851883120409FF600D121D270519E564
:071BFB001970E5051880E1F7
:011C020022BF
:1018E400B1B1CEB300C4CFCEB300B6ABBEAD00CE63
:1018F400F7BEAD00CBD9B6C83A00BABDCFF2A3BA91
:1019040000B8DFB6C83A2000BAA3B0CE3A2000B679
:10191400C800C3D7006B6D2F680020202020C4EAC4
:101924002020D4C22020C8D5202000BFC9BCFBCEB3
:10193400C0D0C7D7DCCAFD3A2000CAB9D3C3CEC0D1
:10194400D0C7CAFD20203A2000202047505320B69B
:10195400A8CEBBCFB5CDB320200020202020B5B128
:0B196400C7B0CAB1BCE4202020200066
:100CC600E4F5097BFF7A19791EFD7F02121BD59088
:100CD600007EE0FEA3E0FF7B007A00790B12164A45
:100CE600E4FD7F021200037B007A00790B121D3DA2
:100CF600EF64044E701BF509740B2509F8E66011C4
:100D0600AF090509740B2FF8E6F50AFF121D2780B7
:100D1600E7900080E0FEA3E0FF7B007A00790B12EB
:100D2600164A7D037F021200037B007A00790B12BC
:100D36001D3DEF64024E701BF509740B2509F8E69C
:100D46006011AF090509740B2FF8E6F50AFF121DAD
:100D56002780E7900082E0FEA3E0FF7B007A00791F
:100D66000B12164A7D057F021200037B007A00797A
:100D76000B121D3DEF64024E701BF509740B25091D
:100D8600F8E66011AF090509740B2FF8E6F50AFFBE
:100D9600121D2780E7900084E0FEA3E0FF7B007A27
:100DA60000790B12164A7D017F031200037B007A3D
:100DB60000790B121D3DEF64024E701BF509740B92
:100DC6002509F8E66011AF090509740B2FF8E6F559
:100DD6000AFF121D2780E77F20121D277F3A121D6A
:100DE60027900086E0FEA3E0FF7B007A00790B12D5
:100DF600164A7D037F031200037B007A00790B12EB
:100E06001D3DEF64024E701BF509740B2509F8E6CB
:100E16006011AF090509740B2FF8E6F50AFF121DDC
:100E26002780E77F20121D277F3A121D2790008812
:100E3600E0FEA3E0FF7B007A00790B12164A7D05DF
:100E46007F031200037B007A00790B121D3DEF64CD
:100E5600024E701BF509740B2509F8E66011AF09FF
:0F0E66000509740B2FF8E6F50AFF121D2780E728
:010E7500225A
:101C6D00121C8C7BFF7A19794DE4FDFF121BD57B7D
:0F1C7D00FF7A19795EE4FD7F01121BD5020CC6B8
:100AA800121C8C7BFF7A1879F8E4FDFF121BD59095
:100AB8000068E0FCA3E0FDA3E0FEA3E0FFE4F51975
:100AC8001213417BFF7A1979197D06E4FF121BD5B1
:100AD8007BFF7A1879FEE4FD7F01121BD590006C2C
:100AE800E0FCA3E0FDA3E0FEA3E0FF7519011213EB
:100AF800417BFF7A1979137D067F01121BD590007F
:100B08007CE0B44E087BFF7A1879E4800D90007C75
:100B1800E0B4530D7BFF7A1879E9E4FD7F02121BDC
:100B2800D590007DE0B445087BFF7A1879EE800DFA
:100B380090007DE0B4570D7BFF7A1879F3E4FD7FD0
:100B480003121BD590005CE0FEA3E0FF7B007A0057
:100B5800790B12164A7D027F021200037B007A008D
:100B6800790B121D3DEF64024E6003020C25F50A55
:100B7800740B250AF8E66011AF0A050A740B2FF802
:100B8800E6F509FF121D2780E77F20121D277F2029
:100B9800121D277FA1121D277FE3121D2790005EDB
:100BA800E0FEA3E0FF7B007A00790B12164A7B0077
:100BB8007A00790B121D3DEF64024E7060F50A74DD
:100BC8000B250AF8E66011AF0A050A740B2FF8E640
:100BD800F509FF121D2780E77FA1121D277FE41268
:100BE8001D27900060E0FEA3E0FF7B007A00790BF0
:100BF80012164A7B007A00790B121D3DEF64024EF3
:100C0800701BF50A740B250AF8E66011AF0A050A8D
:100C1800740B2FF8E6F509FF121D2780E790006294
:100C2800E0FEA3E0FF7B007A00790B12164A7B00F6
:100C38007A00790B121D3DEF64034E6003020CC568
:100C4800FB7A00790B7D027F03121BD57F20121DD2
:100C5800277FA1121D277FE3121D27900064E0FE65
:100C6800A3E0FF7B007A00790B12164A7B007A001A
:100C7800790B121D3DEF64024E7042FB7A00790B2E
:100C88007D057F03121BD57FA1121D277FE4121D4E
:100C980027900066E0FEA3E0FF7B007A00790B1244
:100CA800164A7B007A00790B121D3DEF64024E70E4
:0D0CB8000CFB7A00790B7D077F03121BD522
:010CC500220C
:1017BC00121C8C7BFF7A19792FE4FDFF121BD57B51
:1017CC00FF7A19793EE4FD7F01121BD5900078E079
:1017DC00FEA3E0FF7B07E4FD121B6190007AE0FEA4
:1017EC00A3E0FF7B077D01121B617BFF7A19790552
:1017FC00E4FD7F02121BD5900070E0FCA3E0FDA37A
:10180C00E0FEA3E0FF751902751A031213447BFF67
:10181C007A1979167D067F02121BD57BFF7A19790E
:10182C000CE4FD7F03121BD5900074E0FCA3E0FDDB
:10183C00A3E0FEA3E0FF751903751A031213447B92
:0C184C00FF7A1979167D067F03021BD578
:101CC3007BFF7A19792FE4FDFF121BD5900078E092
:0B1CD300FEA3E0FF7B07E4FD021B61A5
:03134100751A0317
:081344008F188E178D168C1511
:10134C00AD1AAF19120003AF18AE17AD16AC1512CB
:10135C00036F8E1B8F1C7B007A00791D12164AE4DA
:10136C00F528741D2528F8E66011AF280528741D92
:10137C002FF8E6F527FF121D2780E77F2E121D2779
:10138C00AF18AE17AD16AC15C004C005C006C0072B
:10139C00AC1BAD1CEC120336A804A905AA06AB07BE
:1013AC00D007D006D005D0041200298F188E178DC7
:1013BC00168C15E4FBFA7920784112011E8F188ED9
:1013CC00178D168C1512036F8E1B8F1CAF18AE1752
:1013DC00AD16AC15C004C005C006C007AC1BAD1CD7
:1013EC00EC120336A804A905AA06AB07D007D00651
:1013FC00D005D0041200298F188E178D168C15E588
:10140C001C2430F527FF121D27AF18AE17AD16ACF4
:10141C0015E4FBFA7920784112011E8F188E178D76
:10142C00168C1512036F8E1B8F1CAF18AE17AD16D2
:10143C00AC15C004C005C006C007AC1BAD1CEC123B
:10144C000336A804A905AA06AB07D007D006D00519
:10145C00D0041200298F188E178D168C15E51C24BC
:07146C0030F527FF021D27E8
:081B61008E098F0AAE03AF05E7
:101B6900AD0612000385090B850A0C7B007A007902
:101B79000DAF0AAE0912164AE4F518740D2518F8C6
:101B8900E66011AF180518740D2FF8E6F517FF1266
:041B99001D2780E79D
:011B9D002225
:100026000203DBE86480F8E933E83360110460F02A
:10003600ED33EC337009E8FCE9FDEAFEEBFF220440
:1000460060DED3EB9FEA9EE99DE8C2E78CF0C2F73B
:1000560095F0400CE8CCF8E9CDF9EACEFAEBCFFB07
:100066001203A685D0F05804700320D5B3E80470B7
:10007600075002B2D50203E592D5EC0460F7E4CC52
:10008600C0E0C398F8603B94186008400DD0E0FBD0
:100096000203BDE4FBFAC9FC8028E830E406E4C9A3
:1000A600FBE4CAFCE830E305E4C9CACBFCE8540724
:1000B6006010F8C3E913F9EA13FAEB13FBEC13FC2F
:1000C600D8F130F52FC3E49CFCEF9BFFEE9AFEEDD2
:1000D60099FDD0E0FBEF4E4D4C701222DB0302037C
:1000E600E2EC2CFCEF33FFEE33FEED33FDED30E7B3
:1000F600EB0203BDEF2BFFEE3AFEED39FDD0E0FB40
:1001060050130BBB00030203E5ED13FDEE13FEEFE8
:0801160013FFEC13FC0203BD12
:10011E00EC4D6011E8497017ED33EC3304600DE4DB
:10012E00FCFFFEFD22E933E8330470F80203DB1214
:10013E0003A658046009E4CC248150062850090215
:10014E0003E52840030203E2C0E0EB4A7044B980A5
:10015E0006D0E0FB0203D1EF4E701CBD8008EBFF12
:10016E00EAFEE9FD80EBE98DF0A4FEE5F002020760
:10017E00E9CDF9EAFEEBFFEF89F0A4FCE5F0CE89BC
:10018E00F0A42EFFE435F0CD89F0A42DFEE435F079
:10019E008067EF4E7005BD80D780C3EF8BF0A4ACA7
:1001AE00F0EE8BF0A42CFCE435F0F8EF8AF0A42CE2
:1001BE00E5F038FCE433CB8DF0A42CFCE5F03BF8F5
:1001CE00EE8AF0A42CFCE5F038F8E433CF89F0A4E5
:1001DE002CFCE5F038CF3400CE89F0A42FFFE5F0EB
:1001EE003EFEE433C98DF0A42EFEE5F039CD8AF043
:1001FE00A42FFFE5F03EFEE43DFD33D0E0FB5007BB
:10020E000BBB000F0203E5EC2CFCEF33FFEE33FECD
:06021E00ED33FD0203BDFB
:100224000203E5EC5D046005E8590470030203DB96
:100234001203A6580460F6EC4860F2EC7004FDFE6C
:10024400FF22C860DB2481C85009C39860025006AD
:100254000203E29850CAF582E9294B4A7005AB8241
:100264000203D175F0007C1A7880C3EF9BEE9AEDFF
:1002740099400DC3EF9BFFEE9AFEED99FDE842F025
:10028400DC23ACF0D0E0FFD0E0FED0E0FDAB822078
:10029400E7101BEB60BAEC2CFCEF33FFEE33FEED02
:1002A40033FD0203BDE803F830E705C0F075F00044
:1002B400EF2FFFEE33FEED33FD40B830E7C280AAE6
:1002C40074F8CC6480CCC86480C8F582046043C3ED
:1002D400EB9FF5F0EA9E42F0E99D42F0E89C45F080
:1002E40060305018E5825FFFE582F42B5582FB50A5
:1002F400210ABA001D09B90019088016E5825BFBC2
:10030400E582F42F5582FF50090EBE00050DBD0095
:10031400010CC3EB9FF5F0EA9E42F0E99D42F0E840
:0D0324009C45F06007CC4820E701B3EC22B7
:1003310075F020800E75F010800575F0087D007E47
:10034100007F003392D530D5031205A5EC33401060
:10035100EF33FFEE33FEED33FDEC33FCD5F0ED2250
:0E036100E5F0247EA2D513CC92E7CDCEFF228C
:10036F00EDD2E7CD33EC3392D524814006E4FFFE86
:10037F00FDFC22FCE4CFCECDCC24E0501174FF80E5
:10038F00EDC3CC13CCCD13CDCE13CECF13CF047082
:07039F00F030D5DE0205A5D8
:1003A600E9D2E7C933E833F892D5EDD2E7CD33EC9D
:0703B60033FC5002B2D52216
:1003BD00EC30E7100FBF000C0EBE00080DBD0004A1
:1003CD000BEB6014A2D5EB13FCED92E7FD2274FF4D
:1003DD00FCFDFEFF22E480F8A2D574FF13FC7D80A6
:0303ED00E480EFBA
:030000000218588B
:0C185800787FE4F6D8FD75813902189FF6
:1003F000BB010689828A83E0225002E722BBFE020B
:09040000E32289828A83E493223D
:10040900BB010CE58229F582E5833AF583E02250A8
:1004190006E92582F8E622BBFE06E92582F8E222F2
:0D042900E58229F582E5833AF583E493220C
:10043600BB010689828A83F0225002F722BBFE01A5
:02044600F3229F
:10044800EF8DF0A4A8F0CF8CF0A428CE8DF0A42EC8
:02045800FE2282
:10045A00C2D5EC30E709B2D5E4C39DFDE49CFCEEBD
:10046A0030E715B2D5E4C39FFFE49EFE1205E1C34F
:10047A00E49DFDE49CFC80031205E130D507C3E44A
:06048A009FFFE49EFE222C
:10049000BB010A89828A83E0F5F0A3E02250068737
:1004A000F009E71922BBFE07E3F5F009E3192289F9
:0B04B000828A83E493F5F0740193222C
:1004BB00BB0110E58229F582E5833AF583E0F5F07F
:1004CB00A3E0225009E92582F886F008E622BBFE5C
:1004DB000AE92582F8E2F5F008E222E5832AF583A2
:0804EB00E993F5F0A3E9932267
:1004F300BB010789828A83020636500B09C5F027A0
:10050300F7C5F01937F722BBFE0D09F8E325F0F321
:10051300C5F019E338F322F889828A83740193259D
:08052300F0C5F0F8E493382262
:10052B00BB010DC58229C582C5833AC58302063638
:10053B005011C58229F808E5F026F618F5F0E5828A
:10054B0036F622BBFE11C58229F808E225F0F5F03C
:10055B00F218E23582F222F8E58229F582E5832A48
:0D056B00F58374019325F0F5F0E493382238
:10057800F8BB0111E58229F582E5833AF583E8F0B5
:10058800E5F0A3F0225009E92582C8F608A6F02272
:0D059800BBFE09E92582C8F2E5F008F22259
:0E05A500C3E49FFFE49EFEE49DFDE49CFC2267
:0C05B300ECF0A3EDF0A3EEF0A3EFF022BB
:101A3F008B2A8A2B892CE4F532F533E5311531AE3B
:101A4F0030700215304E6033AB2DAA2EA92F120322
:101A5F00F0FFAB2AAA2BA92C0533E533AC32700269
:101A6F00053214F5828C83EF1205BFEF60CD740140
:101A7F00252FF52FE4352EF52E80C0AB2AAA2BA9E2
:021A8F002C2207
:101D3D00E4FFFE1203F0600C0FEF70010E09E97065
:051D4D00F20A80EF2204
:10186400021473E493A3F8E493A34003F68001F213
:1018740008DFF48029E493A3F85407240CC8C33385
:10188400C4540F4420C8834004F456800146F6DF54
:10189400E4800B0102040810204080901D52E47E75
:1018A400019360BCA3FF543F30E509541FFEE49349
:1018B400A360010ECF54C025E060A840B8E493A310
:1018C400FAE493A3F8E493A3C8C582C8CAC583CA3B
:1018D400F0A3C8C582C8CAC583CADFE9DEE780BEF3
:011D6500007D
:1005BF00F8BB010DE58229F582E5833AF583E8F072
:1005CF00225006E92582C8F622BBFE05E92582C81E
:0205DF00F22206
:1005E100BC000BBE0029EF8DF084FFADF022E4CCFE
:1005F100F875F008EF2FFFEE33FEEC33FCEE9DECC7
:10060100984005FCEE9DFE0FD5F0E9E4CEFD22ED0C
:10061100F8F5F0EE8420D21CFEADF075F008EF2F56
:10062100FFED33FD4007985006D5F0F222C398FD47
:050631000FD5F0EA22E4
:10063600C5F0F8A3E028F0C5F0F8E582158270024F
:060646001583E038F022EC
:00000001FF
